S018000074696D65725F6E6F726D616C6D6F64652E737265635E
S11300000C942A000C9434000C9434000C943400A6
S11300100C9434000C9434000C9434000C9434008C
S11300200C9434000C9434000C9434000C9434007C
S11300300C9434000C9434000C9434000C9434006C
S11300400C9434000C9434000C9434000C9434005C
S11300500C94340011241FBECFE5D8E0DEBFCDBF21
S11300600E9436000C9443000C94000085E083BF8A
S11300708FEF84BB83B3809585BB08B600FEFDCFAC
S10D008081E088BFF7CFF894FFCFAA
S9030000FC
