S00D00006D6F746F722E73726563E6
S11300000C942A000C943F000C943F000C943F0085
S11300100C943F000C943F000C943F000C943F0060
S11300200C943F000C943F000C943F000C943F0050
S11300300C943F000C943F000C943F000C943F0040
S11300400C943F000C943F000C943F000C943F0030
S11300500C943F0011241FBECFE5D8E0DEBFCDBF16
S113006010E0A0E6B0E0E6E4F1E002C005900D92F5
S1130070A038B107D9F70E9470000C94A1000C9429
S1130080000095B3977F95BB82BB85B3806185BB28
S11300908FE59AEE0197F1F700C0000085B38F7EDB
S11300A085BB089595B3986095BB82BB85B3806189
S11300B085BB8FE59AEE0197F1F700C0000085B388
S11300C08F7E85BB0895CF93DF93EC0103C0219607
S11300D00E94520088818111FACFDF91CF91089557
S11300E084B38E7F84BB84B3866084BB84B388610D
S11300F084BB8FEF81BB12BA15BA88E30E9441001A
S113010081E00E9441008CE00E94410080E80E944E
S11301104100989B0BC085B3826085BB85B38B7F00
S113012085BB80E690E00E946300F0CF85B38460D5
S113013085BB85B38D7F85BB80E790E00E9463001B
S1090140E5CFF894FFCFA7
S1130146436C6F636B776973652020202020200041
S1130156416E74692D636C6F636B77697365000018
S9030000FC
