S00B00006164632E73726563F1
S11300000C942A000C943F000C943F000C943F0085
S11300100C943F000C943F000C943F000C943F0060
S11300200C943F000C943F000C943F000C943F0050
S11300300C943F000C943F000C943F000C943F0040
S11300400C943F000C943F000C943F000C943F0030
S11300500C943F0011241FBECFE5D8E0DEBFCDBF16
S113006010E0A0E6B0E0E0E0F2E002C005900D92FE
S1130070A436B107D9F70E94AD000C94FE000C948D
S1130080000095B3977F95BB82BB85B3806185BB28
S11300908FE59AEE0197F1F700C0000085B38F7EDB
S11300A085BB089595B3986095BB82BB85B3806189
S11300B085BB8FE59AEE0197F1F700C0000085B388
S11300C08F7E85BB0895CF93DF93EC0103C0219607
S11300D00E94520088818111FACFDF91CF91089557
S11300E00F931F93CF93DF9300D000D01F92CDB70F
S11300F0DEB700E010E001C0890198012F5F3F4F97
S11301006AE070E00E94D600E1E0F0E0EC0FFD1F31
S1130110E00FF11F805D8083862F972F1816190634
S11301205CF30BC0E1E0F0E0EC0FFD1FE00FF11F0A
S113013080810E9452000150110911239CF780E62E
S113014090E00E9463000F900F900F900F900F901B
S1130150DF91CF911F910F9108958FEF81BB84B3ED
S1130160886184BB1ABA17B880EC86B98FE00E9404
S1130170410088E30E94410081E00E9441008FE138
S11301809EE40197F1F700C0000086B1806486B94F
S1130190349BFECF80E80E94410024B185B190E0F9
S11301A0982F8827822B0E947000E9CF97FB072E97
S11301B016F4009407D077FD09D00E94EA0007FCEA
S11301C005D03EF4909581959F4F08957095619563
S11301D07F4F0895AA1BBB1B51E107C0AA1FBB1F79
S11301E0A617B70710F0A61BB70B881F991F5A95BF
S11301F0A9F780959095BC01CD010895F894FFCF9F
S10702002020200096
S9030000FC
