:100000000C942A000C9434000C9434000C943400AA
:100010000C9434000C9434000C9434000C94340090
:100020000C9434000C9434000C9434000C94340080
:100030000C9434000C9434000C9434000C94340070
:100040000C9434000C9434000C9434000C94340060
:100050000C94340011241FBECFE5D8E0DEBFCDBF25
:100060000E9436000C9445000C94000086E880BD88
:100070001BB888E18AB983E389B910BC5F9BFECFC6
:0E0080008CB15D9BFECF8CB9F9CFF894FFCF09
:00000001FF
