:100000000C942A000C9434000C9434000C943400AA
:100010000C9434000C9434000C9434000C94340090
:100020000C9434000C9434000C9434000C94340080
:100030000C9434000C9434000C9434000C94340070
:100040000C9434000C9434000C9434000C94340060
:100050000C94340011241FBECFE5D8E0DEBFCDBF25
:100060000E945C000C94E4000C94000095B3977F10
:1000700095BB82BB85B3806185BB8FE59AEE019706
:10008000F1F700C0000085B38F7E85BB089595B35E
:10009000986095BB82BB85B3806185BB8FE59AEE86
:1000A0000197F1F700C0000085B38F7E85BB86B352
:1000B0008F708F30E1F708958FEF81BB84B3886133
:1000C00084BB80EF87BB8FE088BB81E00E94360055
:1000D00088E30E9436008FE00E9436008FEE88BBD6
:1000E00086B38F708B3081F018F4873089F013C09D
:1000F0008D3031F08E3079F480E30E9447000BC0E0
:1001000081E30E94470007C082E30E94470003C0CA
:1001100083E30E9447008FED88BB86B38F708B30DE
:1001200081F018F4873089F013C08D3031F08E30B3
:1001300079F484E30E9447000BC085E30E944700E6
:1001400007C086E30E94470003C087E30E94470080
:100150008FEB88BB86B38F708B3081F018F48730BB
:1001600089F013C08D3031F08E3079F488E30E942D
:1001700047000BC089E30E94470007C081E40E944A
:10018000470003C082E40E9447008FE788BB86B324
:100190008F708B3089F018F4873091F09FCF8D30BD
:1001A00039F08E3009F09ACF83E40E94470096CF51
:1001B00084E40E94470092CF85E40E9447008ECFDE
:0C01C00086E40E9447008ACFF894FFCF2D
:00000001FF
