:100000000C942A000C9434000C9434000C943400AA
:100010000C9434000C9434000C9434000C94340090
:100020000C9434000C9434000C9434000C94340080
:100030000C9434000C9434000C9434000C94340070
:100040000C9434000C9434000C9434000C94340060
:100050000C94340011241FBECFE5D8E0DEBFCDBF25
:100060000E9436000C9469000C9400008FEF8ABB4C
:1000700014BA989BFECF90E0989B03C09F5F98991D
:10008000FECF8BEA989F812D11248695282F220F71
:10009000820F292F281B19F48FEF8BBBEDCF213056
:1000A00011F41BBAE9CF1BBA3FE38DE023E03150D6
:1000B00080402040E1F700C000008FEF8BBB3FE3A2
:1000C0008DE023E0315080402040E1F700C0000087
:0600D000D3CFF894FFCF2E
:00000001FF
