:100000000C942A000C9434000C9434000C943400AA
:100010000C9434000C9434000C9434000C94340090
:100020000C9434000C9434000C9434000C94340080
:100030000C9434000C9434000C9434000C94340070
:100040000C9434000C9434000C9434000C94340060
:100050000C94340011241FBECFE5D8E0DEBFCDBF25
:100060000E9436000C9447000C94000085E183BF89
:100070008FEF87BB83E02FEF39E698E121503040C6
:100080009040E1F700C000008CBF88E7F4CFF894FF
:02009000FFCFA0
:00000001FF
