:100000000C942A000C943F000C943F000C943F0089
:100010000C943F000C943F000C943F000C943F0064
:100020000C943F000C943F000C943F000C943F0054
:100030000C943F000C943F000C943F000C943F0044
:100040000C943F000C943F000C943F000C943F0034
:100050000C943F0011241FBECFE5D8E0DEBFCDBF1A
:1000600010E0A0E6B0E0E4E0F3E002C005900D92FD
:10007000AC37B107D9F70E94AD000C9480010C9405
:10008000000095B3977F95BB82BB85B3806185BB2C
:100090008FE697E10197F1F700C0000085B38F7EEE
:1000A00085BB089595B3986095BB82BB85B380618D
:1000B00085BB8FEC97E00197F1F700C0000085B396
:1000C0008F7E85BB0895CF93DF93EC0103C021960B
:1000D0000E94520088818111FACFDF91CF9108955B
:1000E0000F931F93CF93DF9300D000D01F92CDB713
:1000F000DEB700E010E001C0890198012F5F3F4F9B
:100100006AE070E00E940101E1E0F0E0EC0FFD1F09
:10011000E00FF11F805D8083862F972F1816190638
:100120005CF30BC0E1E0F0E0EC0FFD1FE00FF11F0E
:1001300080810E9452000150110911239CF780E632
:1001400090E00E9463000F900F900F900F900F901F
:10015000DF91CF911F910F9108958FEF81BB84B3F1
:10016000886184BB1ABA80EC86B98CE00E94410099
:1001700088E30E94410081E00E94410017B88FECA3
:1001800097E00197F1F700C0000086B1806486B95E
:10019000349BFECF80E80E94410084E690E00E94FC
:1001A000630024B185B190E0982F8827822B0E94AC
:1001B000700081E087B98FEC97E00197F1F700C0FC
:1001C000000086B1806486B9349BFECF80EC0E942B
:1001D00041008EE690E00E94630084B1A5B1B0E0DA
:1001E000BA2FAA27A82B24EF31E00E9434012FEF69
:1001F00033E040E050E00E941501C9010E94700008
:10020000BDCF97FB072E16F4009407D077FD09D0D9
:100210000E943B0107FC05D03EF4909581959F4FCD
:100220000895709561957F4F0895052E97FB1EF4F4
:1002300000940E942C0157FD07D00E944F0107FC3B
:1002400003D04EF40C942C01509540953095219597
:100250003F4F4F4F5F4F08959095809570956195F2
:100260007F4F8F4F9F4F08950E947101B7FF0895F0
:10027000821B930B0895AA1BBB1B51E107C0AA1F49
:10028000BB1FA617B70710F0A61BB70B881F991F37
:100290005A95A9F780959095BC01CD010895A1E2EA
:1002A0001A2EAA1BBB1BFD010DC0AA1FBB1FEE1FF0
:1002B000FF1FA217B307E407F50720F0A21BB30B3B
:1002C000E40BF50B661F771F881F991F1A9469F7B7
:1002D00060957095809590959B01AC01BD01CF0113
:1002E0000895A29FB001B39FC001A39F700D811D0F
:1002F0001124911DB29F700D811D1124911D08952F
:04030000F894FFCF9F
:1003040020202000506F742D6867203D2000546524
:0C0314006D70726174757265203D2000F0
:00000001FF
